{
  "contractName": "ArtERC721",
  "abi": [
    {
      "constant": false,
      "inputs": [
        {
          "name": "_to",
          "type": "address"
        },
        {
          "name": "_tokenId",
          "type": "uint256"
        }
      ],
      "name": "approve",
      "outputs": [],
      "payable": false,
      "stateMutability": "nonpayable",
      "type": "function"
    },
    {
      "constant": true,
      "inputs": [],
      "name": "totalSupply",
      "outputs": [
        {
          "name": "",
          "type": "uint256"
        }
      ],
      "payable": false,
      "stateMutability": "view",
      "type": "function"
    },
    {
      "constant": true,
      "inputs": [
        {
          "name": "",
          "type": "address"
        }
      ],
      "name": "ownerArtworkCount",
      "outputs": [
        {
          "name": "",
          "type": "uint256"
        }
      ],
      "payable": false,
      "stateMutability": "view",
      "type": "function"
    },
    {
      "constant": true,
      "inputs": [
        {
          "name": "_tokenId",
          "type": "uint256"
        }
      ],
      "name": "approvedFor",
      "outputs": [
        {
          "name": "",
          "type": "address"
        }
      ],
      "payable": false,
      "stateMutability": "view",
      "type": "function"
    },
    {
      "constant": true,
      "inputs": [
        {
          "name": "",
          "type": "uint256"
        }
      ],
      "name": "artworks",
      "outputs": [
        {
          "name": "createdAt",
          "type": "uint64"
        },
        {
          "name": "title",
          "type": "string"
        },
        {
          "name": "originalCreator",
          "type": "address"
        },
        {
          "name": "price",
          "type": "uint256"
        },
        {
          "name": "url",
          "type": "string"
        },
        {
          "name": "forSale",
          "type": "bool"
        }
      ],
      "payable": false,
      "stateMutability": "view",
      "type": "function"
    },
    {
      "constant": true,
      "inputs": [
        {
          "name": "_owner",
          "type": "address"
        }
      ],
      "name": "tokensOf",
      "outputs": [
        {
          "name": "",
          "type": "uint256[]"
        }
      ],
      "payable": false,
      "stateMutability": "view",
      "type": "function"
    },
    {
      "constant": true,
      "inputs": [
        {
          "name": "_tokenId",
          "type": "uint256"
        }
      ],
      "name": "ownerOf",
      "outputs": [
        {
          "name": "",
          "type": "address"
        }
      ],
      "payable": false,
      "stateMutability": "view",
      "type": "function"
    },
    {
      "constant": true,
      "inputs": [
        {
          "name": "_owner",
          "type": "address"
        }
      ],
      "name": "balanceOf",
      "outputs": [
        {
          "name": "",
          "type": "uint256"
        }
      ],
      "payable": false,
      "stateMutability": "view",
      "type": "function"
    },
    {
      "constant": true,
      "inputs": [
        {
          "name": "",
          "type": "uint256"
        }
      ],
      "name": "artworkToOwner",
      "outputs": [
        {
          "name": "",
          "type": "address"
        }
      ],
      "payable": false,
      "stateMutability": "view",
      "type": "function"
    },
    {
      "constant": true,
      "inputs": [],
      "name": "owner",
      "outputs": [
        {
          "name": "",
          "type": "address"
        }
      ],
      "payable": false,
      "stateMutability": "view",
      "type": "function"
    },
    {
      "constant": false,
      "inputs": [
        {
          "name": "_to",
          "type": "address"
        },
        {
          "name": "_tokenId",
          "type": "uint256"
        }
      ],
      "name": "transfer",
      "outputs": [],
      "payable": false,
      "stateMutability": "nonpayable",
      "type": "function"
    },
    {
      "constant": false,
      "inputs": [
        {
          "name": "_tokenId",
          "type": "uint256"
        }
      ],
      "name": "takeOwnership",
      "outputs": [],
      "payable": false,
      "stateMutability": "nonpayable",
      "type": "function"
    },
    {
      "constant": false,
      "inputs": [
        {
          "name": "newOwner",
          "type": "address"
        }
      ],
      "name": "transferOwnership",
      "outputs": [],
      "payable": false,
      "stateMutability": "nonpayable",
      "type": "function"
    },
    {
      "anonymous": false,
      "inputs": [
        {
          "indexed": true,
          "name": "previousOwner",
          "type": "address"
        },
        {
          "indexed": true,
          "name": "newOwner",
          "type": "address"
        }
      ],
      "name": "OwnershipTransferred",
      "type": "event"
    },
    {
      "anonymous": false,
      "inputs": [
        {
          "indexed": true,
          "name": "_from",
          "type": "address"
        },
        {
          "indexed": true,
          "name": "_to",
          "type": "address"
        },
        {
          "indexed": false,
          "name": "_tokenId",
          "type": "uint256"
        }
      ],
      "name": "Transfer",
      "type": "event"
    },
    {
      "anonymous": false,
      "inputs": [
        {
          "indexed": true,
          "name": "_owner",
          "type": "address"
        },
        {
          "indexed": true,
          "name": "_approved",
          "type": "address"
        },
        {
          "indexed": false,
          "name": "_tokenId",
          "type": "uint256"
        }
      ],
      "name": "Approval",
      "type": "event"
    },
    {
      "constant": true,
      "inputs": [
        {
          "name": "_id",
          "type": "uint256"
        }
      ],
      "name": "getArtwork",
      "outputs": [
        {
          "name": "createdAt",
          "type": "uint64"
        },
        {
          "name": "title",
          "type": "string"
        },
        {
          "name": "originalCreator",
          "type": "address"
        },
        {
          "name": "price",
          "type": "uint256"
        },
        {
          "name": "url",
          "type": "string"
        },
        {
          "name": "forSale",
          "type": "bool"
        }
      ],
      "payable": false,
      "stateMutability": "view",
      "type": "function"
    },
    {
      "constant": false,
      "inputs": [
        {
          "name": "_title",
          "type": "string"
        },
        {
          "name": "_url",
          "type": "string"
        },
        {
          "name": "_price",
          "type": "uint256"
        },
        {
          "name": "_forSale",
          "type": "bool"
        }
      ],
      "name": "createArtwork",
      "outputs": [
        {
          "name": "",
          "type": "uint256"
        }
      ],
      "payable": false,
      "stateMutability": "nonpayable",
      "type": "function"
    },
    {
      "constant": true,
      "inputs": [
        {
          "name": "_artworkId",
          "type": "uint256"
        }
      ],
      "name": "checkOwner",
      "outputs": [
        {
          "name": "",
          "type": "address"
        }
      ],
      "payable": false,
      "stateMutability": "view",
      "type": "function"
    },
    {
      "constant": false,
      "inputs": [
        {
          "name": "_artworkId",
          "type": "uint256"
        },
        {
          "name": "_newPrice",
          "type": "uint256"
        }
      ],
      "name": "updateArtworkPrice",
      "outputs": [],
      "payable": false,
      "stateMutability": "nonpayable",
      "type": "function"
    },
    {
      "constant": false,
      "inputs": [
        {
          "name": "_saleStatus",
          "type": "bool"
        },
        {
          "name": "_artworkId",
          "type": "uint256"
        }
      ],
      "name": "updateSaleStatus",
      "outputs": [],
      "payable": false,
      "stateMutability": "nonpayable",
      "type": "function"
    }
  ],
  "bytecode": "0x606060405233600560006101000a81548173ffffffffffffffffffffffffffffffffffffffff021916908373ffffffffffffffffffffffffffffffffffffffff160217905550611f29806100546000396000f3006060604052600436106100fc576000357c0100000000000000000000000000000000000000000000000000000000900463ffffffff168063095ea7b314610101578063167ddf6e1461014357806318160ddd146102ab57806328d222b1146102d45780632a6dd48f146103215780634b602673146103845780635001257e146105265780635a3f2672146105525780636352211e146105e0578063659f08cd1461064357806370a08231146106715780638b2bdf25146106be5780638da5cb5b146107215780639365a0ad146107765780639870dce01461083e578063a9059cbb146108a1578063b2e6ceeb146108e3578063f2fde38b14610906575b600080fd5b341561010c57600080fd5b610141600480803573ffffffffffffffffffffffffffffffffffffffff1690602001909190803590602001909190505061093f565b005b341561014e57600080fd5b6101646004808035906020019091905050610ad2565b604051808767ffffffffffffffff1667ffffffffffffffff168152602001806020018673ffffffffffffffffffffffffffffffffffffffff1673ffffffffffffffffffffffffffffffffffffffff1681526020018581526020018060200184151515158152602001838103835288818151815260200191508051906020019080838360005b838110156102045780820151818401526020810190506101e9565b50505050905090810190601f1680156102315780820380516001836020036101000a031916815260200191505b50838103825285818151815260200191508051906020019080838360005b8381101561026a57808201518184015260208101905061024f565b50505050905090810190601f1680156102975780820380516001836020036101000a031916815260200191505b509850505050505050505060405180910390f35b34156102b657600080fd5b6102be610cae565b6040518082815260200191505060405180910390f35b34156102df57600080fd5b61030b600480803573ffffffffffffffffffffffffffffffffffffffff16906020019091905050610cb7565b6040518082815260200191505060405180910390f35b341561032c57600080fd5b6103426004808035906020019091905050610ccf565b604051808273ffffffffffffffffffffffffffffffffffffffff1673ffffffffffffffffffffffffffffffffffffffff16815260200191505060405180910390f35b341561038f57600080fd5b6103a56004808035906020019091905050610d0c565b604051808767ffffffffffffffff1667ffffffffffffffff168152602001806020018673ffffffffffffffffffffffffffffffffffffffff1673ffffffffffffffffffffffffffffffffffffffff168152602001858152602001806020018415151515815260200183810383528881815460018160011615610100020316600290048152602001915080546001816001161561010002031660029004801561048e5780601f106104635761010080835404028352916020019161048e565b820191906000526020600020905b81548152906001019060200180831161047157829003601f168201915b50508381038252858181546001816001161561010002031660029004815260200191508054600181600116156101000203166002900480156105115780601f106104e657610100808354040283529160200191610511565b820191906000526020600020905b8154815290600101906020018083116104f457829003601f168201915b50509850505050505050505060405180910390f35b341561053157600080fd5b6105506004808035906020019091908035906020019091905050610d96565b005b341561055d57600080fd5b610589600480803573ffffffffffffffffffffffffffffffffffffffff16906020019091905050610e2c565b6040518080602001828103825283818151815260200191508051906020019060200280838360005b838110156105cc5780820151818401526020810190506105b1565b505050509050019250505060405180910390f35b34156105eb57600080fd5b6106016004808035906020019091905050610ec9565b604051808273ffffffffffffffffffffffffffffffffffffffff1673ffffffffffffffffffffffffffffffffffffffff16815260200191505060405180910390f35b341561064e57600080fd5b61066f60048080351515906020019091908035906020019091905050610f47565b005b341561067c57600080fd5b6106a8600480803573ffffffffffffffffffffffffffffffffffffffff16906020019091905050611030565b6040518082815260200191505060405180910390f35b34156106c957600080fd5b6106df600480803590602001909190505061107c565b604051808273ffffffffffffffffffffffffffffffffffffffff1673ffffffffffffffffffffffffffffffffffffffff16815260200191505060405180910390f35b341561072c57600080fd5b6107346110af565b604051808273ffffffffffffffffffffffffffffffffffffffff1673ffffffffffffffffffffffffffffffffffffffff16815260200191505060405180910390f35b341561078157600080fd5b610828600480803590602001908201803590602001908080601f0160208091040260200160405190810160405280939291908181526020018383808284378201915050505050509190803590602001908201803590602001908080601f0160208091040260200160405190810160405280939291908181526020018383808284378201915050505050509190803590602001909190803515159060200190919050506110d5565b6040518082815260200191505060405180910390f35b341561084957600080fd5b61085f60048080359060200190919050506112fe565b604051808273ffffffffffffffffffffffffffffffffffffffff1673ffffffffffffffffffffffffffffffffffffffff16815260200191505060405180910390f35b34156108ac57600080fd5b6108e1600480803573ffffffffffffffffffffffffffffffffffffffff1690602001909190803590602001909190505061133b565b005b34156108ee57600080fd5b610904600480803590602001909190505061138e565b005b341561091157600080fd5b61093d600480803573ffffffffffffffffffffffffffffffffffffffff169060200190919050506113b9565b005b6000813373ffffffffffffffffffffffffffffffffffffffff1661096282610ec9565b73ffffffffffffffffffffffffffffffffffffffff1614151561098457600080fd5b61098d83610ec9565b91508173ffffffffffffffffffffffffffffffffffffffff168473ffffffffffffffffffffffffffffffffffffffff16141515156109ca57600080fd5b60006109d584610ccf565b73ffffffffffffffffffffffffffffffffffffffff16141580610a0f575060008473ffffffffffffffffffffffffffffffffffffffff1614155b15610acc57836002600085815260200190815260200160002060006101000a81548173ffffffffffffffffffffffffffffffffffffffff021916908373ffffffffffffffffffffffffffffffffffffffff1602179055508373ffffffffffffffffffffffffffffffffffffffff168273ffffffffffffffffffffffffffffffffffffffff167f8c5be1e5ebec7d5bd14f71427d1e84f3dd0314c0f7b2291e5b200ac8c7c3b925856040518082815260200191505060405180910390a35b50505050565b6000610adc611c48565b600080610ae7611c48565b600080600688815481101515610af957fe5b906000526020600020906006020190508060000160009054906101000a900467ffffffffffffffff169650806001018054600181600116156101000203166002900480601f016020809104026020016040519081016040528092919081815260200182805460018160011615610100020316600290048015610bbc5780601f10610b9157610100808354040283529160200191610bbc565b820191906000526020600020905b815481529060010190602001808311610b9f57829003601f168201915b505050505095508060020160009054906101000a900473ffffffffffffffffffffffffffffffffffffffff16945080600301549350806004018054600181600116156101000203166002900480601f016020809104026020016040519081016040528092919081815260200182805460018160011615610100020316600290048015610c895780601f10610c5e57610100808354040283529160200191610c89565b820191906000526020600020905b815481529060010190602001808311610c6c57829003601f168201915b505050505092508060050160009054906101000a900460ff1691505091939550919395565b60008054905090565b60086020528060005260406000206000915090505481565b60006002600083815260200190815260200160002060009054906101000a900473ffffffffffffffffffffffffffffffffffffffff169050919050565b600681815481101515610d1b57fe5b90600052602060002090600602016000915090508060000160009054906101000a900467ffffffffffffffff169080600101908060020160009054906101000a900473ffffffffffffffffffffffffffffffffffffffff169080600301549080600401908060050160009054906101000a900460ff16905086565b6007600083815260200190815260200160002060009054906101000a900473ffffffffffffffffffffffffffffffffffffffff1673ffffffffffffffffffffffffffffffffffffffff163373ffffffffffffffffffffffffffffffffffffffff16141515610e0357600080fd5b80600683815481101515610e1357fe5b9060005260206000209060060201600301819055505050565b610e34611c5c565b600360008373ffffffffffffffffffffffffffffffffffffffff1673ffffffffffffffffffffffffffffffffffffffff168152602001908152602001600020805480602002602001604051908101604052809291908181526020018280548015610ebd57602002820191906000526020600020905b815481526020019060010190808311610ea9575b50505050509050919050565b6000806001600084815260200190815260200160002060009054906101000a900473ffffffffffffffffffffffffffffffffffffffff169050600073ffffffffffffffffffffffffffffffffffffffff168173ffffffffffffffffffffffffffffffffffffffff1614151515610f3e57600080fd5b80915050919050565b6007600082815260200190815260200160002060009054906101000a900473ffffffffffffffffffffffffffffffffffffffff1673ffffffffffffffffffffffffffffffffffffffff163373ffffffffffffffffffffffffffffffffffffffff16141515610fb457600080fd5b600681815481101515610fc357fe5b906000526020600020906006020160050160009054906101000a900460ff16151582151514151515610ff457600080fd5b8160068281548110151561100457fe5b906000526020600020906006020160050160006101000a81548160ff0219169083151502179055505050565b6000600360008373ffffffffffffffffffffffffffffffffffffffff1673ffffffffffffffffffffffffffffffffffffffff168152602001908152602001600020805490509050919050565b60076020528060005260406000206000915054906101000a900473ffffffffffffffffffffffffffffffffffffffff1681565b600560009054906101000a900473ffffffffffffffffffffffffffffffffffffffff1681565b60006110df611c70565b60008060c0604051908101604052804267ffffffffffffffff1681526020018981526020013373ffffffffffffffffffffffffffffffffffffffff16815260200187815260200188815260200186151581525092503391506006805480600101828161114b9190611cd5565b9160005260206000209060060201600085909190915060008201518160000160006101000a81548167ffffffffffffffff021916908367ffffffffffffffff16021790555060208201518160010190805190602001906111ac929190611d07565b5060408201518160020160006101000a81548173ffffffffffffffffffffffffffffffffffffffff021916908373ffffffffffffffffffffffffffffffffffffffff16021790555060608201518160030155608082015181600401908051906020019061121a929190611d07565b5060a08201518160050160006101000a81548160ff02191690831515021790555050509050816007600060018403815260200190815260200160002060006101000a81548173ffffffffffffffffffffffffffffffffffffffff021916908373ffffffffffffffffffffffffffffffffffffffff160217905550600860003373ffffffffffffffffffffffffffffffffffffffff1673ffffffffffffffffffffffffffffffffffffffff168152602001908152602001600020600081548092919060010191905055506112ed3382611511565b600181039350505050949350505050565b60006007600083815260200190815260200160002060009054906101000a900473ffffffffffffffffffffffffffffffffffffffff169050919050565b803373ffffffffffffffffffffffffffffffffffffffff1661135c82610ec9565b73ffffffffffffffffffffffffffffffffffffffff1614151561137e57600080fd5b6113893384846115ab565b505050565b61139833826116f4565b15156113a357600080fd5b6113b66113af82610ec9565b33836115ab565b50565b600560009054906101000a900473ffffffffffffffffffffffffffffffffffffffff1673ffffffffffffffffffffffffffffffffffffffff163373ffffffffffffffffffffffffffffffffffffffff1614151561141557600080fd5b600073ffffffffffffffffffffffffffffffffffffffff168173ffffffffffffffffffffffffffffffffffffffff161415151561145157600080fd5b8073ffffffffffffffffffffffffffffffffffffffff16600560009054906101000a900473ffffffffffffffffffffffffffffffffffffffff1673ffffffffffffffffffffffffffffffffffffffff167f8be0079c531659141344cd1fd0a4f28419497f9722a3daafe3b4186f6b6457e060405160405180910390a380600560006101000a81548173ffffffffffffffffffffffffffffffffffffffff021916908373ffffffffffffffffffffffffffffffffffffffff16021790555050565b600073ffffffffffffffffffffffffffffffffffffffff168273ffffffffffffffffffffffffffffffffffffffff161415151561154d57600080fd5b6115578282611735565b8173ffffffffffffffffffffffffffffffffffffffff1660007fddf252ad1be2c89b69c2b068fc378daa952ba7f163c4a11628f55a4df523b3ef836040518082815260200191505060405180910390a35050565b600073ffffffffffffffffffffffffffffffffffffffff168273ffffffffffffffffffffffffffffffffffffffff16141515156115e757600080fd5b6115f081610ec9565b73ffffffffffffffffffffffffffffffffffffffff168273ffffffffffffffffffffffffffffffffffffffff161415151561162a57600080fd5b8273ffffffffffffffffffffffffffffffffffffffff1661164a82610ec9565b73ffffffffffffffffffffffffffffffffffffffff1614151561166c57600080fd5b61167683826118a0565b6116808382611989565b61168a8282611735565b8173ffffffffffffffffffffffffffffffffffffffff168373ffffffffffffffffffffffffffffffffffffffff167fddf252ad1be2c89b69c2b068fc378daa952ba7f163c4a11628f55a4df523b3ef836040518082815260200191505060405180910390a3505050565b60008273ffffffffffffffffffffffffffffffffffffffff1661171683610ccf565b73ffffffffffffffffffffffffffffffffffffffff1614905092915050565b60008073ffffffffffffffffffffffffffffffffffffffff166001600084815260200190815260200160002060009054906101000a900473ffffffffffffffffffffffffffffffffffffffff1673ffffffffffffffffffffffffffffffffffffffff161415156117a457600080fd5b826001600084815260200190815260200160002060006101000a81548173ffffffffffffffffffffffffffffffffffffffff021916908373ffffffffffffffffffffffffffffffffffffffff1602179055506117ff83611030565b9050600360008473ffffffffffffffffffffffffffffffffffffffff1673ffffffffffffffffffffffffffffffffffffffff16815260200190815260200160002080548060010182816118529190611d87565b9160005260206000209001600084909190915055508060046000848152602001908152602001600020819055506118956001600054611c1190919063ffffffff16565b600081905550505050565b8173ffffffffffffffffffffffffffffffffffffffff166118c082610ec9565b73ffffffffffffffffffffffffffffffffffffffff161415156118e257600080fd5b60006002600083815260200190815260200160002060006101000a81548173ffffffffffffffffffffffffffffffffffffffff021916908373ffffffffffffffffffffffffffffffffffffffff16021790555060008273ffffffffffffffffffffffffffffffffffffffff167f8c5be1e5ebec7d5bd14f71427d1e84f3dd0314c0f7b2291e5b200ac8c7c3b925836040518082815260200191505060405180910390a35050565b60008060008473ffffffffffffffffffffffffffffffffffffffff166119ae85610ec9565b73ffffffffffffffffffffffffffffffffffffffff161415156119d057600080fd5b60046000858152602001908152602001600020549250611a0260016119f487611030565b611c2f90919063ffffffff16565b9150600360008673ffffffffffffffffffffffffffffffffffffffff1673ffffffffffffffffffffffffffffffffffffffff16815260200190815260200160002082815481101515611a5057fe5b906000526020600020900154905060006001600086815260200190815260200160002060006101000a81548173ffffffffffffffffffffffffffffffffffffffff021916908373ffffffffffffffffffffffffffffffffffffffff16021790555080600360008773ffffffffffffffffffffffffffffffffffffffff1673ffffffffffffffffffffffffffffffffffffffff16815260200190815260200160002084815481101515611afe57fe5b9060005260206000209001819055506000600360008773ffffffffffffffffffffffffffffffffffffffff1673ffffffffffffffffffffffffffffffffffffffff16815260200190815260200160002083815481101515611b5b57fe5b906000526020600020900181905550600360008673ffffffffffffffffffffffffffffffffffffffff1673ffffffffffffffffffffffffffffffffffffffff168152602001908152602001600020805480919060019003611bbc9190611db3565b5060006004600086815260200190815260200160002081905550826004600083815260200190815260200160002081905550611c046001600054611c2f90919063ffffffff16565b6000819055505050505050565b6000808284019050838110151515611c2557fe5b8091505092915050565b6000828211151515611c3d57fe5b818303905092915050565b602060405190810160405280600081525090565b602060405190810160405280600081525090565b60c060405190810160405280600067ffffffffffffffff168152602001611c95611ddf565b8152602001600073ffffffffffffffffffffffffffffffffffffffff16815260200160008152602001611cc6611ddf565b81526020016000151581525090565b815481835581811511611d0257600602816006028360005260206000209182019101611d019190611df3565b5b505050565b828054600181600116156101000203166002900490600052602060002090601f016020900481019282601f10611d4857805160ff1916838001178555611d76565b82800160010185558215611d76579182015b82811115611d75578251825591602001919060010190611d5a565b5b509050611d839190611e90565b5090565b815481835581811511611dae57818360005260206000209182019101611dad9190611e90565b5b505050565b815481835581811511611dda57818360005260206000209182019101611dd99190611e90565b5b505050565b602060405190810160405280600081525090565b611e8d91905b80821115611e8957600080820160006101000a81549067ffffffffffffffff0219169055600182016000611e2d9190611eb5565b6002820160006101000a81549073ffffffffffffffffffffffffffffffffffffffff02191690556003820160009055600482016000611e6c9190611eb5565b6005820160006101000a81549060ff021916905550600601611df9565b5090565b90565b611eb291905b80821115611eae576000816000905550600101611e96565b5090565b90565b50805460018160011615610100020316600290046000825580601f10611edb5750611efa565b601f016020900490600052602060002090810190611ef99190611e90565b5b505600a165627a7a723058200d70406f2d76986e587288b61d5af459f5ccfa2a0ab31b9792df297925833f9f0029",
  "source": "pragma solidity ^0.4.18;\n\nimport 'zeppelin-solidity/contracts/token/ERC721/ERC721Token.sol';\nimport 'zeppelin-solidity/contracts/ownership/Ownable.sol';\n\ncontract ArtERC721 is ERC721Token, Ownable {\n\n  struct Art {\n    uint64 createdAt;\n    string title;\n    address originalCreator;\n    uint256 price;\n    string url;\n    bool forSale;\n  }\n\n  Art[] public artworks;\n\n  mapping(uint => address) public artworkToOwner;\n  mapping(address => uint) public ownerArtworkCount;\n\n\n  //gets metadata for a given piece of art\n  function getArtwork(uint256 _id)\n    external \n    view\n    returns (\n      uint64 createdAt,\n      string title,\n      address originalCreator,\n      uint256 price,\n      string url,\n      bool forSale\n\t) {\n      Art storage artwork = artworks[_id];\n\n      createdAt = uint64(artwork.createdAt);\n      title = string(artwork.title);\n      originalCreator = address(artwork.originalCreator);\n      price = uint256(artwork.price);\n      url = string(artwork.url);\n      forSale = bool(artwork.forSale);\n\t}\n\n  // minting of new artwork tokens\n  function createArtwork(\n  \tstring _title,\n  \tstring _url,\n  \tuint256 _price,\n  \tbool _forSale\n  ) \n    public\n    returns (uint256)\n {\n\n  \tArt memory _artwork = Art({\n \t  createdAt: uint64(now),\n \t  title: string(_title),\n \t  originalCreator: address(msg.sender),\n \t  price: uint256(_price),\n \t  url: string(_url),\n \t  forSale: bool(_forSale)\n \t});\n\n  \taddress originalCreator = msg.sender;\n  \tuint256 id = artworks.push(_artwork);\n  \tartworkToOwner[id - 1] = originalCreator;\n  \townerArtworkCount[msg.sender]++;\n  \t_mint(msg.sender, id);\n  \treturn id - 1;\n  }\n\n  function checkOwner(uint256 _artworkId) external view returns (address) {\n  \treturn artworkToOwner[_artworkId];\n  }\n\n  // checks if the claimant owns the token\n  function _owns(address _claimant, uint256 _artworkId) internal view returns (bool) {\n    return artworkToOwner[_artworkId] == _claimant;\n  }\n\n  // checks if artwork is marked for sale\n  function _forSale(uint256 _artworkId) internal view returns (bool) {\n  \treturn artworks[_artworkId].forSale;\n  }\n\n  // allows owner of artwork to update the sale price\n  function updateArtworkPrice(uint256 _artworkId, uint256 _newPrice) {\n  \trequire(msg.sender == artworkToOwner[_artworkId]);\n  \tartworks[_artworkId].price = _newPrice;\n  }\n\n  // allows owner of artwork to change the sale status\n  function updateSaleStatus(bool _saleStatus, uint256 _artworkId) {\n  \trequire(msg.sender == artworkToOwner[_artworkId]);\n  \trequire(_saleStatus != artworks[_artworkId].forSale);\n  \tartworks[_artworkId].forSale = _saleStatus;\n  }\n\n  // transfer token to a new address \n  function _transfer(address _from, address _to, uint256 _artworkId) internal {\n  \t// Safety check to prevent against unexpected 0x0 default\n  \trequire(_to != address(0));\n\n  \t// make sure only owner calls this function\n  \t// require(_owns(msg.sender, _artworkId));\n\n  \t// always mark a newly transferred artwork as not for sale\n  \tartworks[_artworkId].forSale = false;\n\n  \t// transfer ownership \n  \tartworkToOwner[_artworkId] = _to;\n\n  \t// increment/decrement owner count\n  \townerArtworkCount[_to]++;\n  \townerArtworkCount[msg.sender]--;\n\n    Transfer(_from, _to, _artworkId);\n  }\n\n  // function purchase(uint256 _artworkId) external payable {\n  // \trequire\n  // }\n\n\n}",
  "sourcePath": "/Users/jack/Desktop/ethereum/eth-denver/art/contracts/ArtERC721.sol",
  "compiler": {
    "name": "solc",
    "version": "0.4.19+commit.c4cbbb05.Emscripten.clang"
  },
  "schemaVersion": "1.0.1",
  "updatedAt": "2018-02-17T23:34:55.792Z"
}