{
  "contractName": "ArtERC721",
  "abi": [
    {
      "constant": false,
      "inputs": [
        {
          "name": "_to",
          "type": "address"
        },
        {
          "name": "_tokenId",
          "type": "uint256"
        }
      ],
      "name": "approve",
      "outputs": [],
      "payable": false,
      "stateMutability": "nonpayable",
      "type": "function"
    },
    {
      "constant": true,
      "inputs": [],
      "name": "totalSupply",
      "outputs": [
        {
          "name": "",
          "type": "uint256"
        }
      ],
      "payable": false,
      "stateMutability": "view",
      "type": "function"
    },
    {
      "constant": true,
      "inputs": [
        {
          "name": "",
          "type": "address"
        }
      ],
      "name": "ownerArtworkCount",
      "outputs": [
        {
          "name": "",
          "type": "uint256"
        }
      ],
      "payable": false,
      "stateMutability": "view",
      "type": "function"
    },
    {
      "constant": true,
      "inputs": [
        {
          "name": "_tokenId",
          "type": "uint256"
        }
      ],
      "name": "approvedFor",
      "outputs": [
        {
          "name": "",
          "type": "address"
        }
      ],
      "payable": false,
      "stateMutability": "view",
      "type": "function"
    },
    {
      "constant": true,
      "inputs": [
        {
          "name": "",
          "type": "uint256"
        }
      ],
      "name": "artworks",
      "outputs": [
        {
          "name": "createdAt",
          "type": "uint64"
        },
        {
          "name": "title",
          "type": "string"
        },
        {
          "name": "originalCreator",
          "type": "address"
        },
        {
          "name": "price",
          "type": "uint256"
        },
        {
          "name": "url",
          "type": "string"
        },
        {
          "name": "forSale",
          "type": "bool"
        }
      ],
      "payable": false,
      "stateMutability": "view",
      "type": "function"
    },
    {
      "constant": true,
      "inputs": [
        {
          "name": "_owner",
          "type": "address"
        }
      ],
      "name": "tokensOf",
      "outputs": [
        {
          "name": "",
          "type": "uint256[]"
        }
      ],
      "payable": false,
      "stateMutability": "view",
      "type": "function"
    },
    {
      "constant": true,
      "inputs": [
        {
          "name": "_tokenId",
          "type": "uint256"
        }
      ],
      "name": "ownerOf",
      "outputs": [
        {
          "name": "",
          "type": "address"
        }
      ],
      "payable": false,
      "stateMutability": "view",
      "type": "function"
    },
    {
      "constant": true,
      "inputs": [
        {
          "name": "_owner",
          "type": "address"
        }
      ],
      "name": "balanceOf",
      "outputs": [
        {
          "name": "",
          "type": "uint256"
        }
      ],
      "payable": false,
      "stateMutability": "view",
      "type": "function"
    },
    {
      "constant": true,
      "inputs": [
        {
          "name": "",
          "type": "uint256"
        }
      ],
      "name": "artworkToOwner",
      "outputs": [
        {
          "name": "",
          "type": "address"
        }
      ],
      "payable": false,
      "stateMutability": "view",
      "type": "function"
    },
    {
      "constant": true,
      "inputs": [],
      "name": "owner",
      "outputs": [
        {
          "name": "",
          "type": "address"
        }
      ],
      "payable": false,
      "stateMutability": "view",
      "type": "function"
    },
    {
      "constant": false,
      "inputs": [
        {
          "name": "_to",
          "type": "address"
        },
        {
          "name": "_tokenId",
          "type": "uint256"
        }
      ],
      "name": "transfer",
      "outputs": [],
      "payable": false,
      "stateMutability": "nonpayable",
      "type": "function"
    },
    {
      "constant": false,
      "inputs": [
        {
          "name": "_tokenId",
          "type": "uint256"
        }
      ],
      "name": "takeOwnership",
      "outputs": [],
      "payable": false,
      "stateMutability": "nonpayable",
      "type": "function"
    },
    {
      "constant": false,
      "inputs": [
        {
          "name": "newOwner",
          "type": "address"
        }
      ],
      "name": "transferOwnership",
      "outputs": [],
      "payable": false,
      "stateMutability": "nonpayable",
      "type": "function"
    },
    {
      "anonymous": false,
      "inputs": [
        {
          "indexed": false,
          "name": "title",
          "type": "string"
        },
        {
          "indexed": false,
          "name": "originalCreator",
          "type": "address"
        },
        {
          "indexed": false,
          "name": "price",
          "type": "uint256"
        },
        {
          "indexed": false,
          "name": "forSale",
          "type": "bool"
        }
      ],
      "name": "newArtwork",
      "type": "event"
    },
    {
      "anonymous": false,
      "inputs": [
        {
          "indexed": true,
          "name": "previousOwner",
          "type": "address"
        },
        {
          "indexed": true,
          "name": "newOwner",
          "type": "address"
        }
      ],
      "name": "OwnershipTransferred",
      "type": "event"
    },
    {
      "anonymous": false,
      "inputs": [
        {
          "indexed": true,
          "name": "_from",
          "type": "address"
        },
        {
          "indexed": true,
          "name": "_to",
          "type": "address"
        },
        {
          "indexed": false,
          "name": "_tokenId",
          "type": "uint256"
        }
      ],
      "name": "Transfer",
      "type": "event"
    },
    {
      "anonymous": false,
      "inputs": [
        {
          "indexed": true,
          "name": "_owner",
          "type": "address"
        },
        {
          "indexed": true,
          "name": "_approved",
          "type": "address"
        },
        {
          "indexed": false,
          "name": "_tokenId",
          "type": "uint256"
        }
      ],
      "name": "Approval",
      "type": "event"
    },
    {
      "constant": true,
      "inputs": [
        {
          "name": "_id",
          "type": "uint256"
        }
      ],
      "name": "getArtwork",
      "outputs": [
        {
          "name": "createdAt",
          "type": "uint64"
        },
        {
          "name": "title",
          "type": "string"
        },
        {
          "name": "originalCreator",
          "type": "address"
        },
        {
          "name": "price",
          "type": "uint256"
        },
        {
          "name": "url",
          "type": "string"
        },
        {
          "name": "forSale",
          "type": "bool"
        }
      ],
      "payable": false,
      "stateMutability": "view",
      "type": "function"
    },
    {
      "constant": false,
      "inputs": [
        {
          "name": "_title",
          "type": "string"
        },
        {
          "name": "_url",
          "type": "string"
        },
        {
          "name": "_price",
          "type": "uint256"
        },
        {
          "name": "_forSale",
          "type": "bool"
        }
      ],
      "name": "createArtwork",
      "outputs": [
        {
          "name": "",
          "type": "uint256"
        }
      ],
      "payable": true,
      "stateMutability": "payable",
      "type": "function"
    },
    {
      "constant": true,
      "inputs": [
        {
          "name": "_artworkId",
          "type": "uint256"
        }
      ],
      "name": "checkOwner",
      "outputs": [
        {
          "name": "",
          "type": "address"
        }
      ],
      "payable": false,
      "stateMutability": "view",
      "type": "function"
    },
    {
      "constant": false,
      "inputs": [
        {
          "name": "_artworkId",
          "type": "uint256"
        },
        {
          "name": "_newPrice",
          "type": "uint256"
        }
      ],
      "name": "updateArtworkPrice",
      "outputs": [],
      "payable": false,
      "stateMutability": "nonpayable",
      "type": "function"
    },
    {
      "constant": false,
      "inputs": [
        {
          "name": "_saleStatus",
          "type": "bool"
        },
        {
          "name": "_artworkId",
          "type": "uint256"
        }
      ],
      "name": "updateSaleStatus",
      "outputs": [],
      "payable": false,
      "stateMutability": "nonpayable",
      "type": "function"
    }
  ],
  "bytecode": "0x606060405233600560006101000a81548173ffffffffffffffffffffffffffffffffffffffff021916908373ffffffffffffffffffffffffffffffffffffffff160217905550612002806100546000396000f3006060604052600436106100fc576000357c0100000000000000000000000000000000000000000000000000000000900463ffffffff168063095ea7b314610101578063167ddf6e1461014357806318160ddd146102ab57806328d222b1146102d45780632a6dd48f146103215780634b602673146103845780635001257e146105265780635a3f2672146105525780636352211e146105e0578063659f08cd1461064357806370a08231146106715780638b2bdf25146106be5780638da5cb5b146107215780639365a0ad146107765780639870dce014610833578063a9059cbb14610896578063b2e6ceeb146108d8578063f2fde38b146108fb575b600080fd5b341561010c57600080fd5b610141600480803573ffffffffffffffffffffffffffffffffffffffff16906020019091908035906020019091905050610934565b005b341561014e57600080fd5b6101646004808035906020019091905050610ac7565b604051808767ffffffffffffffff1667ffffffffffffffff168152602001806020018673ffffffffffffffffffffffffffffffffffffffff1673ffffffffffffffffffffffffffffffffffffffff1681526020018581526020018060200184151515158152602001838103835288818151815260200191508051906020019080838360005b838110156102045780820151818401526020810190506101e9565b50505050905090810190601f1680156102315780820380516001836020036101000a031916815260200191505b50838103825285818151815260200191508051906020019080838360005b8381101561026a57808201518184015260208101905061024f565b50505050905090810190601f1680156102975780820380516001836020036101000a031916815260200191505b509850505050505050505060405180910390f35b34156102b657600080fd5b6102be610ca3565b6040518082815260200191505060405180910390f35b34156102df57600080fd5b61030b600480803573ffffffffffffffffffffffffffffffffffffffff16906020019091905050610cac565b6040518082815260200191505060405180910390f35b341561032c57600080fd5b6103426004808035906020019091905050610cc4565b604051808273ffffffffffffffffffffffffffffffffffffffff1673ffffffffffffffffffffffffffffffffffffffff16815260200191505060405180910390f35b341561038f57600080fd5b6103a56004808035906020019091905050610d01565b604051808767ffffffffffffffff1667ffffffffffffffff168152602001806020018673ffffffffffffffffffffffffffffffffffffffff1673ffffffffffffffffffffffffffffffffffffffff168152602001858152602001806020018415151515815260200183810383528881815460018160011615610100020316600290048152602001915080546001816001161561010002031660029004801561048e5780601f106104635761010080835404028352916020019161048e565b820191906000526020600020905b81548152906001019060200180831161047157829003601f168201915b50508381038252858181546001816001161561010002031660029004815260200191508054600181600116156101000203166002900480156105115780601f106104e657610100808354040283529160200191610511565b820191906000526020600020905b8154815290600101906020018083116104f457829003601f168201915b50509850505050505050505060405180910390f35b341561053157600080fd5b6105506004808035906020019091908035906020019091905050610d8b565b005b341561055d57600080fd5b610589600480803573ffffffffffffffffffffffffffffffffffffffff16906020019091905050610e21565b6040518080602001828103825283818151815260200191508051906020019060200280838360005b838110156105cc5780820151818401526020810190506105b1565b505050509050019250505060405180910390f35b34156105eb57600080fd5b6106016004808035906020019091905050610ebe565b604051808273ffffffffffffffffffffffffffffffffffffffff1673ffffffffffffffffffffffffffffffffffffffff16815260200191505060405180910390f35b341561064e57600080fd5b61066f60048080351515906020019091908035906020019091905050610f3c565b005b341561067c57600080fd5b6106a8600480803573ffffffffffffffffffffffffffffffffffffffff16906020019091905050611025565b6040518082815260200191505060405180910390f35b34156106c957600080fd5b6106df6004808035906020019091905050611071565b604051808273ffffffffffffffffffffffffffffffffffffffff1673ffffffffffffffffffffffffffffffffffffffff16815260200191505060405180910390f35b341561072c57600080fd5b6107346110a4565b604051808273ffffffffffffffffffffffffffffffffffffffff1673ffffffffffffffffffffffffffffffffffffffff16815260200191505060405180910390f35b61081d600480803590602001908201803590602001908080601f0160208091040260200160405190810160405280939291908181526020018383808284378201915050505050509190803590602001908201803590602001908080601f0160208091040260200160405190810160405280939291908181526020018383808284378201915050505050509190803590602001909190803515159060200190919050506110ca565b6040518082815260200191505060405180910390f35b341561083e57600080fd5b61085460048080359060200190919050506113d7565b604051808273ffffffffffffffffffffffffffffffffffffffff1673ffffffffffffffffffffffffffffffffffffffff16815260200191505060405180910390f35b34156108a157600080fd5b6108d6600480803573ffffffffffffffffffffffffffffffffffffffff16906020019091908035906020019091905050611414565b005b34156108e357600080fd5b6108f96004808035906020019091905050611467565b005b341561090657600080fd5b610932600480803573ffffffffffffffffffffffffffffffffffffffff16906020019091905050611492565b005b6000813373ffffffffffffffffffffffffffffffffffffffff1661095782610ebe565b73ffffffffffffffffffffffffffffffffffffffff1614151561097957600080fd5b61098283610ebe565b91508173ffffffffffffffffffffffffffffffffffffffff168473ffffffffffffffffffffffffffffffffffffffff16141515156109bf57600080fd5b60006109ca84610cc4565b73ffffffffffffffffffffffffffffffffffffffff16141580610a04575060008473ffffffffffffffffffffffffffffffffffffffff1614155b15610ac157836002600085815260200190815260200160002060006101000a81548173ffffffffffffffffffffffffffffffffffffffff021916908373ffffffffffffffffffffffffffffffffffffffff1602179055508373ffffffffffffffffffffffffffffffffffffffff168273ffffffffffffffffffffffffffffffffffffffff167f8c5be1e5ebec7d5bd14f71427d1e84f3dd0314c0f7b2291e5b200ac8c7c3b925856040518082815260200191505060405180910390a35b50505050565b6000610ad1611d21565b600080610adc611d21565b600080600688815481101515610aee57fe5b906000526020600020906006020190508060000160009054906101000a900467ffffffffffffffff169650806001018054600181600116156101000203166002900480601f016020809104026020016040519081016040528092919081815260200182805460018160011615610100020316600290048015610bb15780601f10610b8657610100808354040283529160200191610bb1565b820191906000526020600020905b815481529060010190602001808311610b9457829003601f168201915b505050505095508060020160009054906101000a900473ffffffffffffffffffffffffffffffffffffffff16945080600301549350806004018054600181600116156101000203166002900480601f016020809104026020016040519081016040528092919081815260200182805460018160011615610100020316600290048015610c7e5780601f10610c5357610100808354040283529160200191610c7e565b820191906000526020600020905b815481529060010190602001808311610c6157829003601f168201915b505050505092508060050160009054906101000a900460ff1691505091939550919395565b60008054905090565b60086020528060005260406000206000915090505481565b60006002600083815260200190815260200160002060009054906101000a900473ffffffffffffffffffffffffffffffffffffffff169050919050565b600681815481101515610d1057fe5b90600052602060002090600602016000915090508060000160009054906101000a900467ffffffffffffffff169080600101908060020160009054906101000a900473ffffffffffffffffffffffffffffffffffffffff169080600301549080600401908060050160009054906101000a900460ff16905086565b6007600083815260200190815260200160002060009054906101000a900473ffffffffffffffffffffffffffffffffffffffff1673ffffffffffffffffffffffffffffffffffffffff163373ffffffffffffffffffffffffffffffffffffffff16141515610df857600080fd5b80600683815481101515610e0857fe5b9060005260206000209060060201600301819055505050565b610e29611d35565b600360008373ffffffffffffffffffffffffffffffffffffffff1673ffffffffffffffffffffffffffffffffffffffff168152602001908152602001600020805480602002602001604051908101604052809291908181526020018280548015610eb257602002820191906000526020600020905b815481526020019060010190808311610e9e575b50505050509050919050565b6000806001600084815260200190815260200160002060009054906101000a900473ffffffffffffffffffffffffffffffffffffffff169050600073ffffffffffffffffffffffffffffffffffffffff168173ffffffffffffffffffffffffffffffffffffffff1614151515610f3357600080fd5b80915050919050565b6007600082815260200190815260200160002060009054906101000a900473ffffffffffffffffffffffffffffffffffffffff1673ffffffffffffffffffffffffffffffffffffffff163373ffffffffffffffffffffffffffffffffffffffff16141515610fa957600080fd5b600681815481101515610fb857fe5b906000526020600020906006020160050160009054906101000a900460ff16151582151514151515610fe957600080fd5b81600682815481101515610ff957fe5b906000526020600020906006020160050160006101000a81548160ff0219169083151502179055505050565b6000600360008373ffffffffffffffffffffffffffffffffffffffff1673ffffffffffffffffffffffffffffffffffffffff168152602001908152602001600020805490509050919050565b60076020528060005260406000206000915054906101000a900473ffffffffffffffffffffffffffffffffffffffff1681565b600560009054906101000a900473ffffffffffffffffffffffffffffffffffffffff1681565b60006110d4611d49565b60008060c0604051908101604052804267ffffffffffffffff1681526020018981526020013373ffffffffffffffffffffffffffffffffffffffff1681526020018781526020018881526020018615158152509250339150600680548060010182816111409190611dae565b9160005260206000209060060201600085909190915060008201518160000160006101000a81548167ffffffffffffffff021916908367ffffffffffffffff16021790555060208201518160010190805190602001906111a1929190611de0565b5060408201518160020160006101000a81548173ffffffffffffffffffffffffffffffffffffffff021916908373ffffffffffffffffffffffffffffffffffffffff16021790555060608201518160030155608082015181600401908051906020019061120f929190611de0565b5060a08201518160050160006101000a81548160ff02191690831515021790555050509050816007600060018403815260200190815260200160002060006101000a81548173ffffffffffffffffffffffffffffffffffffffff021916908373ffffffffffffffffffffffffffffffffffffffff160217905550600860003373ffffffffffffffffffffffffffffffffffffffff1673ffffffffffffffffffffffffffffffffffffffff168152602001908152602001600020600081548092919060010191905055506112e233826115ea565b7fdbef3190a0d28fcb4328a29ef023c0ea5ba90b02690f7a1d5211c8908b6d2fb28733888860405180806020018573ffffffffffffffffffffffffffffffffffffffff1673ffffffffffffffffffffffffffffffffffffffff16815260200184815260200183151515158152602001828103825286818151815260200191508051906020019080838360005b8381101561138957808201518184015260208101905061136e565b50505050905090810190601f1680156113b65780820380516001836020036101000a031916815260200191505b509550505050505060405180910390a1600181039350505050949350505050565b60006007600083815260200190815260200160002060009054906101000a900473ffffffffffffffffffffffffffffffffffffffff169050919050565b803373ffffffffffffffffffffffffffffffffffffffff1661143582610ebe565b73ffffffffffffffffffffffffffffffffffffffff1614151561145757600080fd5b611462338484611684565b505050565b61147133826117cd565b151561147c57600080fd5b61148f61148882610ebe565b3383611684565b50565b600560009054906101000a900473ffffffffffffffffffffffffffffffffffffffff1673ffffffffffffffffffffffffffffffffffffffff163373ffffffffffffffffffffffffffffffffffffffff161415156114ee57600080fd5b600073ffffffffffffffffffffffffffffffffffffffff168173ffffffffffffffffffffffffffffffffffffffff161415151561152a57600080fd5b8073ffffffffffffffffffffffffffffffffffffffff16600560009054906101000a900473ffffffffffffffffffffffffffffffffffffffff1673ffffffffffffffffffffffffffffffffffffffff167f8be0079c531659141344cd1fd0a4f28419497f9722a3daafe3b4186f6b6457e060405160405180910390a380600560006101000a81548173ffffffffffffffffffffffffffffffffffffffff021916908373ffffffffffffffffffffffffffffffffffffffff16021790555050565b600073ffffffffffffffffffffffffffffffffffffffff168273ffffffffffffffffffffffffffffffffffffffff161415151561162657600080fd5b611630828261180e565b8173ffffffffffffffffffffffffffffffffffffffff1660007fddf252ad1be2c89b69c2b068fc378daa952ba7f163c4a11628f55a4df523b3ef836040518082815260200191505060405180910390a35050565b600073ffffffffffffffffffffffffffffffffffffffff168273ffffffffffffffffffffffffffffffffffffffff16141515156116c057600080fd5b6116c981610ebe565b73ffffffffffffffffffffffffffffffffffffffff168273ffffffffffffffffffffffffffffffffffffffff161415151561170357600080fd5b8273ffffffffffffffffffffffffffffffffffffffff1661172382610ebe565b73ffffffffffffffffffffffffffffffffffffffff1614151561174557600080fd5b61174f8382611979565b6117598382611a62565b611763828261180e565b8173ffffffffffffffffffffffffffffffffffffffff168373ffffffffffffffffffffffffffffffffffffffff167fddf252ad1be2c89b69c2b068fc378daa952ba7f163c4a11628f55a4df523b3ef836040518082815260200191505060405180910390a3505050565b60008273ffffffffffffffffffffffffffffffffffffffff166117ef83610cc4565b73ffffffffffffffffffffffffffffffffffffffff1614905092915050565b60008073ffffffffffffffffffffffffffffffffffffffff166001600084815260200190815260200160002060009054906101000a900473ffffffffffffffffffffffffffffffffffffffff1673ffffffffffffffffffffffffffffffffffffffff1614151561187d57600080fd5b826001600084815260200190815260200160002060006101000a81548173ffffffffffffffffffffffffffffffffffffffff021916908373ffffffffffffffffffffffffffffffffffffffff1602179055506118d883611025565b9050600360008473ffffffffffffffffffffffffffffffffffffffff1673ffffffffffffffffffffffffffffffffffffffff168152602001908152602001600020805480600101828161192b9190611e60565b91600052602060002090016000849091909150555080600460008481526020019081526020016000208190555061196e6001600054611cea90919063ffffffff16565b600081905550505050565b8173ffffffffffffffffffffffffffffffffffffffff1661199982610ebe565b73ffffffffffffffffffffffffffffffffffffffff161415156119bb57600080fd5b60006002600083815260200190815260200160002060006101000a81548173ffffffffffffffffffffffffffffffffffffffff021916908373ffffffffffffffffffffffffffffffffffffffff16021790555060008273ffffffffffffffffffffffffffffffffffffffff167f8c5be1e5ebec7d5bd14f71427d1e84f3dd0314c0f7b2291e5b200ac8c7c3b925836040518082815260200191505060405180910390a35050565b60008060008473ffffffffffffffffffffffffffffffffffffffff16611a8785610ebe565b73ffffffffffffffffffffffffffffffffffffffff16141515611aa957600080fd5b60046000858152602001908152602001600020549250611adb6001611acd87611025565b611d0890919063ffffffff16565b9150600360008673ffffffffffffffffffffffffffffffffffffffff1673ffffffffffffffffffffffffffffffffffffffff16815260200190815260200160002082815481101515611b2957fe5b906000526020600020900154905060006001600086815260200190815260200160002060006101000a81548173ffffffffffffffffffffffffffffffffffffffff021916908373ffffffffffffffffffffffffffffffffffffffff16021790555080600360008773ffffffffffffffffffffffffffffffffffffffff1673ffffffffffffffffffffffffffffffffffffffff16815260200190815260200160002084815481101515611bd757fe5b9060005260206000209001819055506000600360008773ffffffffffffffffffffffffffffffffffffffff1673ffffffffffffffffffffffffffffffffffffffff16815260200190815260200160002083815481101515611c3457fe5b906000526020600020900181905550600360008673ffffffffffffffffffffffffffffffffffffffff1673ffffffffffffffffffffffffffffffffffffffff168152602001908152602001600020805480919060019003611c959190611e8c565b5060006004600086815260200190815260200160002081905550826004600083815260200190815260200160002081905550611cdd6001600054611d0890919063ffffffff16565b6000819055505050505050565b6000808284019050838110151515611cfe57fe5b8091505092915050565b6000828211151515611d1657fe5b818303905092915050565b602060405190810160405280600081525090565b602060405190810160405280600081525090565b60c060405190810160405280600067ffffffffffffffff168152602001611d6e611eb8565b8152602001600073ffffffffffffffffffffffffffffffffffffffff16815260200160008152602001611d9f611eb8565b81526020016000151581525090565b815481835581811511611ddb57600602816006028360005260206000209182019101611dda9190611ecc565b5b505050565b828054600181600116156101000203166002900490600052602060002090601f016020900481019282601f10611e2157805160ff1916838001178555611e4f565b82800160010185558215611e4f579182015b82811115611e4e578251825591602001919060010190611e33565b5b509050611e5c9190611f69565b5090565b815481835581811511611e8757818360005260206000209182019101611e869190611f69565b5b505050565b815481835581811511611eb357818360005260206000209182019101611eb29190611f69565b5b505050565b602060405190810160405280600081525090565b611f6691905b80821115611f6257600080820160006101000a81549067ffffffffffffffff0219169055600182016000611f069190611f8e565b6002820160006101000a81549073ffffffffffffffffffffffffffffffffffffffff02191690556003820160009055600482016000611f459190611f8e565b6005820160006101000a81549060ff021916905550600601611ed2565b5090565b90565b611f8b91905b80821115611f87576000816000905550600101611f6f565b5090565b90565b50805460018160011615610100020316600290046000825580601f10611fb45750611fd3565b601f016020900490600052602060002090810190611fd29190611f69565b5b505600a165627a7a7230582067d52f569faa9e7c0bfeb926b45e4c87428923e6f75de7295ce7cabac332bee50029",
  "source": "pragma solidity ^0.4.18;\n\nimport 'zeppelin-solidity/contracts/token/ERC721/ERC721Token.sol';\nimport 'zeppelin-solidity/contracts/ownership/Ownable.sol';\n\ncontract ArtERC721 is ERC721Token, Ownable {\n\n  struct Art {\n    uint64 createdAt;\n    string title;\n    address originalCreator;\n    uint256 price;\n    string url;\n    bool forSale;\n  }\n\n  event newArtwork(string title, address originalCreator, uint256 price, bool forSale);\n\n  Art[] public artworks;\n\n  mapping(uint => address) public artworkToOwner;\n  mapping(address => uint) public ownerArtworkCount;\n\n\n  //gets metadata for a given piece of art\n  function getArtwork(uint256 _id)\n    external \n    view\n    returns (\n      uint64 createdAt,\n      string title,\n      address originalCreator,\n      uint256 price,\n      string url,\n      bool forSale\n\t) {\n      Art storage artwork = artworks[_id];\n\n      createdAt = uint64(artwork.createdAt);\n      title = string(artwork.title);\n      originalCreator = address(artwork.originalCreator);\n      price = uint256(artwork.price);\n      url = string(artwork.url);\n      forSale = bool(artwork.forSale);\n\t}\n\n  // minting of new artwork tokens\n  function createArtwork(\n  \tstring _title,\n  \tstring _url,\n  \tuint256 _price,\n  \tbool _forSale\n  ) \n    public\n    payable\n    returns (uint256)\n {\n\n  \tArt memory _artwork = Art({\n \t  createdAt: uint64(now),\n \t  title: string(_title),\n \t  originalCreator: address(msg.sender),\n \t  price: uint256(_price),\n \t  url: string(_url),\n \t  forSale: bool(_forSale)\n \t});\n\n  \taddress originalCreator = msg.sender;\n  \tuint256 id = artworks.push(_artwork);\n  \tartworkToOwner[id - 1] = originalCreator;\n  \townerArtworkCount[msg.sender]++;\n  \t_mint(msg.sender, id);\n  \tnewArtwork(_url, msg.sender, _price, _forSale);\n  \treturn id - 1;\n  }\n\n  function checkOwner(uint256 _artworkId) external view returns (address) {\n  \treturn artworkToOwner[_artworkId];\n  }\n\n  // checks if the claimant owns the token\n  function _owns(address _claimant, uint256 _artworkId) internal view returns (bool) {\n    return artworkToOwner[_artworkId] == _claimant;\n  }\n\n  // checks if artwork is marked for sale\n  function _forSale(uint256 _artworkId) internal view returns (bool) {\n  \treturn artworks[_artworkId].forSale;\n  }\n\n  // allows owner of artwork to update the sale price\n  function updateArtworkPrice(uint256 _artworkId, uint256 _newPrice) {\n  \trequire(msg.sender == artworkToOwner[_artworkId]);\n  \tartworks[_artworkId].price = _newPrice;\n  }\n\n  // allows owner of artwork to change the sale status\n  function updateSaleStatus(bool _saleStatus, uint256 _artworkId) {\n  \trequire(msg.sender == artworkToOwner[_artworkId]);\n  \trequire(_saleStatus != artworks[_artworkId].forSale);\n  \tartworks[_artworkId].forSale = _saleStatus;\n  }\n\n  // transfer token to a new address \n  function _transfer(address _from, address _to, uint256 _artworkId) internal {\n  \t// Safety check to prevent against unexpected 0x0 default\n  \trequire(_to != address(0));\n\n  \t// make sure only owner calls this function\n  \t// require(_owns(msg.sender, _artworkId));\n\n  \t// always mark a newly transferred artwork as not for sale\n  \tartworks[_artworkId].forSale = false;\n\n  \t// transfer ownership \n  \tartworkToOwner[_artworkId] = _to;\n\n  \t// increment/decrement owner count\n  \townerArtworkCount[_to]++;\n  \townerArtworkCount[_from]--;\n\n    Transfer(_from, _to, _artworkId);\n  }\n\n  // function purchase(uint256 _artworkId) external payable {\n  // \tvar artwork = getArtwork(_artworkId);\n  // \trequire(msg.value >= artwork.price);\n\n  // }\n\n\n}",
  "sourcePath": "/Users/Park/Documents/Projects/art-token/contracts/ArtERC721.sol",
  "compiler": {
    "name": "solc",
    "version": "0.4.19+commit.c4cbbb05.Emscripten.clang"
  },
  "schemaVersion": "1.0.1",
  "updatedAt": "2018-02-18T15:24:44.194Z"
}